:04200000D7EF3EF0E8
:107DAE0000013FEF3FF0FE0EBB6E000EBC6E9E92CA
:107DBE00060EBA6E120020EC3FF0F8EC3EF0EBEC43
:107DCE003EF0DAEC3EF012001C0EBD6E000EB66EEA
:107DDE00800EB76E010EB96E000EBF6E7F0EBE6EB8
:107DEE001200700ED36E000ED26E800E9B6E000EC1
:107DFE00B56ED2AE05EF3FF007EF3FF000EF3FF06C
:107E0E00120001C003F002C004F0D8900432033215
:107E1E00D890043203320350BE6E01C003F0030E3D
:107E2E000316033AF00E0316BD50CF0B0310BD6EB2
:107E3E001200000E8D6E000E8C6E000E896E000EFE
:107E4E008A6E000E8B6E070E966E92689368C30E46
:107E5E00946E95680F015E69C40E5D6F3F0E5C6F88
:107E6E00070E5F6F2F0E5B6F000E856EF18E120088
:107E7E00E2EC3EF0000E076E000E066E06C001F03C
:107E8E0007C002F008EC3FF04E0E056EEB0EE82E2A
:107E9E00FED7052EFCD700F0064A072A075008E148
:107EAE000628D8A05DEF3FF05FEF3FF045EF3FF0C3
:107EBE00000E076E066806C001F007C002F008EC5F
:107ECE003FF04E0E056EEB0EE82EFED7052EFCD7BC
:107EDE0000F00606D8A0070606500710D8A47AEFC1
:107EEE003FF07CEF3FF062EF3FF041EF3FF000EFED
:027EFE0010F082
:020000040020DA
:08000000FFFFFFFFFFFFFFFF00
:020000040030CA
:0E00000003285F3CFFD381FF0FC00FE00F40CD
:00000001FF
