:0420000012EF3FF0AC
:107E240000013DEF3FF00F0EC112000E8B6E9494D3
:107E34001200FE0ECB6E000ECC6E060ECA6E0C0E39
:107E4400BD6ECA84120001C003F002C004F0D890D1
:107E540004320332D890043203320350BE6E01C0A0
:107E640003F0030E0316033AF00E0316BD50CF0BB6
:107E74000310BD6E120015EC3FF01BEC3FF0000E3A
:107E8400076E000E066E06C001F007C002F025EC76
:107E94003FF0200E056E2A0EE82EFED7052EFCD7E5
:107EA400064A072AFC0E065C030E0758D8A05DEFAD
:107EB4003FF05FEF3FF045EF3FF0030E076EFC0E1F
:107EC400066E06C001F007C002F025EC3FF0200E5C
:107ED400056E2A0EE82EFED7052EFCD70606D8A07E
:107EE400070606500710D8A47AEF3FF07CEF3FF066
:0C7EF40063EF3FF041EF3FF000EF10F0B3
:020000040020DA
:08000000FFFFFFFFFFFFFFFF00
:020000040030CA
:0E000000000E181EFF8181FF0FC00FE00F40A1
:00000001FF
